:04000000ECEF04F02D
:0A00080000C015F015C000F0110053
:100012000B820BAE13EF00F0036802680168006800
:080022000A360232FF0E120043
:0E002A00026A016A006A086A036A000E120088
:100038000B840BAE27EF00F0010E036E026A016A13
:0A004800006A0A360232FF0E1200B1
:080052000AAE029E000E12002E
:10005A000134083609360450085E0550D8A0053C1C
:10006A00095E003601360F0E0C6E01340836093669
:10007A00045000A006D0085E0550D8A0053C095ED1
:10008A0005D008260550D8B0053C092600360136A9
:10009A000C2EEBD700B006D0045008260550D8B075
:0800AA00053C092600001200CC
:1000B2000CB09BEF00F00CA241EF01F00E6A000EB3
:1000C2000264B2EF00F0F00E0214D8A47DEF00F04B
:1000D200023A01380F0B02260138F00B016E00388C
:1000E2000F0B01260038F00B006E08380F0B0026AC
:1000F2000838F00B086E0E84D89002BE96EF00F01E
:1001020008360036013602360E2A02BE96EF00F09D
:1001120008360036013602360E2A02BE96EF00F08D
:1001220008360036013602360E2A0E50036437EFC7
:1001320001F0035E0BBC08AE3CEF01F0D880800EEC
:1001420008640030000E002201220222D8A03CEFF7
:1001520001F0023201320032034A41EF01F03CEF7A
:1001620001F001C002F000C001F008C000F0086A0E
:10017200000E0E860264E9EF00F0F00E0214D8A41D
:10018200D1EF00F0023A01380F0B02260138F00BD2
:10019200016E00380F0B01260038F00B006E0E8442
:1001A200D89002BE96EF00F00036013602360E2AD3
:1001B20002BE96EF00F00036013602360E2A02BE6B
:1001C20096EF00F00036013602360E2A96EF00F066
:1001D20001C002F000C001F0006A000E0E960E8807
:1001E200026416EF01F0F00E0214D8A401EF01F040
:1001F200023A01380F0B02260138F00B016E0E8411
:10020200D89002BE96EF00F0013602360E2A02BEE8
:1002120096EF00F0013602360E2A02BE96EF00F08B
:10022200013602360E2A96EF00F001C002F0016A92
:10023200000E0E86026446EF01F0F00E0214D8A4FE
:1002420025EF01F0023A0E84D89002BE96EF00F03C
:1002520002360E2A02BE96EF00F002360E2A02BEC7
:1002620096EF00F002360E2A96EF00F0010E0C6EA9
:10027200E2DE49EF01F0020E0C6EEADE49EF01F018
:10028200040E0C6EC5DE49EF01F0080E0C6ECCDEDA
:02029200120058
:080294000B6A0B86FF0E12003D
:10029C000450000A08E10550000A05E1FF0E006E4B
:1002AC007F0E016E57D00D6A096A086A0150001062
:1002BC00D8B4000C015005180A6E0ABE0D1E0B6A4C
:1002CC0005AE05D0041E051E042AD8B4052A01AEBD
:1002DC0005D0001E011E002AD8B4012A01500510B9
:1002EC000A6E0ABE10D0B3DE0BB020D00DAE000CDF
:1002FC00001E011E002AD8B4012A081E091E082A55
:10030C00D8B4092A000C05AE0DD001BE07D001509F
:10031C00096E0050086E016A006AE8D7016A006A2B
:10032C00002A000C011E001E0B2ADDD7082AD8B4A7
:10033C00092A0450085CD8A4D9D70550095CD8A464
:10034C00D5D7096A086A002AD8B4012A01AECED7DB
:06035C000000FF0C12007E
:04036200FFD71200AF
:100366000900F5CFE6FF0006FBE10106F9E1120000
:10037600FF0E296EFF0E2A6EFF0E2B6EFF0E2C6EE1
:0C038600C26A070EC012C08EC2801200B6
:100392000001DD6BDE6B0A0E046E000E056EDDC021
:1003A20000F0DEC001F079DF08C000F009C001F002
:1003B20000C027F001C028F00A0E046E000E056E80
:1003C200DDC000F0DEC001F068DF00C0DDF001C07A
:1003D200DEF00A0E046E000E056E5FDF08C000F04C
:1003E20009C001F000C01AF001C01BF00A0E046E31
:1003F200000E056EDDC000F0DEC001F04EDF00C071
:10040200DDF001C0DEF00A0E046E000E056E45DF5F
:1004120008C000F009C001F000C018F001C019F0D6
:100422000A0E046E000E056EDDC000F0DEC001F0A3
:0C04320034DF00C016F001C017F012000B
:10043E000450000A12E10550000A0FE10650000AAE
:10044E000CE10750000A09E1FF0E006EFF0E016E6F
:10045E007F0E026EFF0E036EA4D0086A096A075063
:10046E00D8B4CAEF02F00350D8B4CEEF02F0025067
:10047E0006180A6E028E068E0E6A02C008F001C0C1
:10048E000CF000C00DF004500D5E0550D8A0053CD8
:10049E000C5E0650D8A0063C085E086A0C6A0D6A0F
:1004AE00D8A061EF02F0D890023201320032083249
:1004BE00010E0E6E0750035ED8A06EEF02F07E0E98
:1004CE000E240326D8B0D2EF02F074EF02F07E0EA7
:1004DE000E240326D8A0D6EF02F0180E0B6E0D36A2
:1004EE000C3608360036013602360E360450005EE3
:1004FE000550D8A0053C015E0650D8A0063C025E11
:10050E0006340E120EA08FEF02F00D809AEF02F05D
:10051E00045000260550D8B0053C01260650D8B030
:10052E00062802260D900B2E76EF02F0C0EF02F099
:10053E00D8900036013602360E360450005E055055
:10054E00D8A0053C015E0650D8A0063C025E0634DB
:10055E000E10010B0D26D8B00C2AD8B4082AD8A438
:10056E00C0EF02F008320C320D32032AD8B4D2EFAB
:10057E0002F00AAE089E0850026E0C50016E0D502D
:10058E00006ED8EF02F0010E7EDED8EF02F0020E02
:10059E0045DDD8EF02F0040E35DDD8EF02F0080E7F
:0405AE0044DD120016
:1005B200025006180E6E086A096A0B6A0350076435
:1005C200CCEF03F006500A6E068E028E03500B6EBD
:1005D2000750036E000E0B641CEF03F00B50075E16
:1005E200D8B4BDEF03F0070E07648BEF03F0075E8C
:1005F20000C008F001C000F002C001F0026A074E1C
:10060200BDEF03F0076460EF03F0075E00C008F07F
:1006120001C000F0016A074EBDEF03F007643EEF30
:1006220003F0075E00C008F0006A074EBDEF03F05A
:10063200076425EF03F00AC002F005C001F004C010
:1006420000F0086AE9EF04F0030E076430EF03F0EC
:10065200075E08380F0B086E074EBDEF03F0D89007
:100662000832074EBDEF03F0D8900832074EBDEFB7
:1006720003F0D8900832BDEF03F0030E07644FEF8A
:1006820003F0075E08380F0B086E0038F00B0826DF
:1006920000380F0B006E074EBDEF03F0D89000320A
:1006A2000832074EBDEF03F0D89000320832074EF1
:1006B200BDEF03F0D89000320832BDEF03F0030E15
:1006C200076477EF03F0075E08380F0B086E0038F7
:1006D200F00B082600380F0B006E0138F00B0026D5
:1006E20001380F0B016E074EBDEF03F0D8900132B7
:1006F20000320832074EBDEF03F0D89001320032CB
:100702000832074EBDEF03F0D890013200320832B2
:10071200BDEF03F0030E0764A8EF03F0075E08388D
:100722000F0B086E0038F00B082600380F0B006E16
:100732000138F00B002601380F0B016E0238F00B66
:10074200012602380F0B026E074EBDEF03F0D89060
:100752000232013200320832074EBDEF03F0D89068
:100762000232013200320832074EBDEF03F0D89058
:100772000232013200320832096A000E0EAEB1EFC7
:1007820004F0081E001E011E021E082A0022012279
:100792000222B1EF04F00750D8A4D2EF03F0E9EF40
:1007A20004F0096A02C00AF0028E068E0750035C4A
:1007B200076ED8B4A4EF04F0070E076472EF04F0DA
:1007C200075E0450096E0550046E0650056E066AF7
:1007D200074EA4EF04F0070E076447EF04F0075E2C
:1007E2000450096E0550046E056A074EA4EF04F02A
:1007F200070E076425EF04F0075E0450096E046AD1
:10080200074EA4EF04F0070E07640CEF04F00AC0D1
:1008120002F0E9EF04F0030E076417EF04F0075E3D
:1008220009380F0B096E074EA4EF04F0D890093275
:10083200074EA4EF04F0D8900932074EA4EF04F05B
:10084200D8900932A4EF04F0030E076436EF04F0E7
:10085200075E09380F0B096E0438F00B09260438BD
:100862000F0B046E074EA4EF04F0D8900432093245
:10087200074EA4EF04F0D89004320932074EA4EFD9
:1008820004F0D89004320932A4EF04F0030E076496
:100892005EEF04F0075E09380F0B096E0438F00BA7
:1008A200092604380F0B046E0538F00B04260538B0
:1008B2000F0B056E074EA4EF04F0D89005320432F8
:1008C2000932074EA4EF04F0D890053204320932FF
:1008D200074EA4EF04F0D890053204320932A4EF97
:1008E20004F0030E07648FEF04F0075E09380F0B64
:1008F200096E0438F00B092604380F0B046E053814
:10090200F00B042605380F0B056E0638F00B052692
:1009120006380F0B066E074EA4EF04F0D89006328D
:10092200053204320932074EA4EF04F0D8900632A1
:10093200053204320932074EA4EF04F0D890063291
:10094200053204320932086A000E0EAEB1EF04F02D
:10095200091E041E051E061E092A0422052206225D
:100962000950082604500022055001220650022296
:100972000EBEC8EF04F0D8A0D7EF04F00232013265
:1009820000320832033ED7EF04F0E3EF04F0D8B0B0
:10099200DDEF04F0000E081E001E011E021E082AD2
:1009A2000022012202220A7EDDEF04F0010E0C6E0B
:1009B20059EC00F0EBEF04F0020E0C6E59EC00F073
:1009C200EBEF04F0040E0C6E09EC00F0EBEF04F018
:0609D200000E0C6E120085
:1009D800A3EC05F00001D16BD26BD36BD46BD56B54
:1009E800D66B0F0EC16EE80EF26EF16A000ED56E70
:1009F800F00E2D6ED80E2E6E030EC26E0E0EC16E48
:100A08008A0EC06E94909492949494989294929A28
:100A1800929092929298936A9280939E0001A7DC9A
:100A2800D56BD66B800ED619006E800E005C02E185
:100A3800280ED55D4AE2D5C000F0D6C001F00036D8
:100A480000900136003600900136310E0024D76F31
:100A5800000E0120D86F81DCD7C0E1FFD8C0E2FFCB
:100A680000C0E6FF01C0E6FF02C0E6FF03C0E6FFE4
:100A7800D5C000F0D6C001F000360090013600362F
:100A880000900136310E0024D96E000E0120DA6E76
:100A9800D1C000F0D2C001F0D3C002F0D4C003F03E
:100AA800DECF04F0DECF05F0DECF06F0DECF07F0B4
:100AB8007CDD00C0D1F001C0D2F002C0D3F003C089
:100AC800D4F00001D54BD62BADD7000E046E000E26
:100AD800056E200E066E840E076ED1C000F0D2C0DF
:100AE80001F0D3C002F0D4C003F0A5DC00C0D1F0FF
:100AF80001C0D2F002C0D3F003C0D4F000C0D9F0D6
:100B080001C0DAF002C0DBF003C0DCF03EDC020E0C
:100B18000B6E860E0C6E990E0D6E0D2EFED70C2EDA
:0A0B2800FCD70B2EFAD77AD7FFD7BF
:100B460010EE16F0130E006E010E016E320EF66EEA
:0E0B56000B0EF76E000EF86EB3EC01F01200FD
:020B32000000C1
:020B34000000BF
:020B36000000BD
:010B380000BC
:0A0B3900C0F9A4B0999282F88090F0
:020B43000000B0
:020000040030CA
:0E000000000C1F1EFF8381FF0FC00FE00F409A
:00000001FF
